{
  "_format": "hh-sol-artifact-1",
  "contractName": "FlashBorrower",
  "sourceName": "contracts/FlashBorrower.sol",
  "abi": [
    {
      "inputs": [
        {
          "internalType": "contract IPoolAddressesProvider",
          "name": "provider",
          "type": "address"
        }
      ],
      "stateMutability": "nonpayable",
      "type": "constructor"
    },
    {
      "inputs": [],
      "name": "ADDRESSES_PROVIDER",
      "outputs": [
        {
          "internalType": "contract IPoolAddressesProvider",
          "name": "",
          "type": "address"
        }
      ],
      "stateMutability": "view",
      "type": "function"
    },
    {
      "inputs": [],
      "name": "POOL",
      "outputs": [
        {
          "internalType": "contract IPool",
          "name": "",
          "type": "address"
        }
      ],
      "stateMutability": "view",
      "type": "function"
    },
    {
      "inputs": [
        {
          "internalType": "address",
          "name": "asset",
          "type": "address"
        },
        {
          "internalType": "uint256",
          "name": "amount",
          "type": "uint256"
        },
        {
          "internalType": "uint256",
          "name": "premium",
          "type": "uint256"
        },
        {
          "internalType": "address",
          "name": "",
          "type": "address"
        },
        {
          "internalType": "bytes",
          "name": "",
          "type": "bytes"
        }
      ],
      "name": "executeOperation",
      "outputs": [
        {
          "internalType": "bool",
          "name": "",
          "type": "bool"
        }
      ],
      "stateMutability": "nonpayable",
      "type": "function"
    },
    {
      "inputs": [],
      "name": "owner",
      "outputs": [
        {
          "internalType": "address",
          "name": "",
          "type": "address"
        }
      ],
      "stateMutability": "view",
      "type": "function"
    },
    {
      "inputs": [
        {
          "internalType": "address",
          "name": "asset",
          "type": "address"
        },
        {
          "internalType": "uint256",
          "name": "amount",
          "type": "uint256"
        }
      ],
      "name": "requestFlashLoan",
      "outputs": [],
      "stateMutability": "nonpayable",
      "type": "function"
    }
  ],
  "bytecode": "0x60c060405234801561001057600080fd5b5060405161056438038061056483398101604081905261002f916100e9565b80806001600160a01b03166080816001600160a01b031681525050806001600160a01b031663026b1d5f6040518163ffffffff1660e01b8152600401602060405180830381865afa158015610088573d6000803e3d6000fd5b505050506040513d601f19601f820116820180604052508101906100ac91906100e9565b6001600160a01b031660a0525050600080546001600160a01b0319163317905561010d565b6001600160a01b03811681146100e657600080fd5b50565b6000602082840312156100fb57600080fd5b8151610106816100d1565b9392505050565b60805160a05161042661013e6000396000818160c801528181610136015261025101526000606101526104266000f3fe608060405234801561001057600080fd5b50600436106100575760003560e01c80630542975c1461005c5780631b11d0ff146100a05780637535d246146100c35780638da5cb5b146100ea578063d54ba954146100fd575b600080fd5b6100837f000000000000000000000000000000000000000000000000000000000000000081565b6040516001600160a01b0390911681526020015b60405180910390f35b6100b36100ae3660046102cd565b610112565b6040519015158152602001610097565b6100837f000000000000000000000000000000000000000000000000000000000000000081565b600054610083906001600160a01b031681565b61011061010b366004610376565b6101c5565b005b60008061011f86886103a0565b60405163095ea7b360e01b81526001600160a01b037f000000000000000000000000000000000000000000000000000000000000000081166004830152602482018390529192509089169063095ea7b3906044016020604051808303816000875af1158015610192573d6000803e3d6000fd5b505050506040513d601f19601f820116820180604052508101906101b691906103c7565b50600198975050505050505050565b6000546001600160a01b031633146102105760405162461bcd60e51b815260206004820152600a60248201526937b7363c9037bbb732b960b11b604482015260640160405180910390fd5b6040516310ac2ddf60e21b81523060048201526001600160a01b0383811660248301526044820183905260a06064830152600060a4830181905260848301527f000000000000000000000000000000000000000000000000000000000000000016906342b0b77c9060c401600060405180830381600087803b15801561029557600080fd5b505af11580156102a9573d6000803e3d6000fd5b505050505050565b80356001600160a01b03811681146102c857600080fd5b919050565b60008060008060008060a087890312156102e657600080fd5b6102ef876102b1565b9550602087013594506040870135935061030b606088016102b1565b9250608087013567ffffffffffffffff81111561032757600080fd5b8701601f8101891361033857600080fd5b803567ffffffffffffffff81111561034f57600080fd5b89602082840101111561036157600080fd5b60208201935080925050509295509295509295565b6000806040838503121561038957600080fd5b610392836102b1565b946020939093013593505050565b808201808211156103c157634e487b7160e01b600052601160045260246000fd5b92915050565b6000602082840312156103d957600080fd5b815180151581146103e957600080fd5b939250505056fea264697066735822122007818a25b92bae0edce0c16bd0d0edc85aba9ebc08b75314f56eba964a380e7e64736f6c634300081c0033",
  "linkReferences": {},
  "deployedLinkReferences": {}
}