{
  "_format": "hh-sol-artifact-1",
  "contractName": "Test",
  "sourceName": "contracts/Test.sol",
  "abi": [
    {
      "inputs": [],
      "name": "message",
      "outputs": [
        {
          "internalType": "string",
          "name": "",
          "type": "string"
        }
      ],
      "stateMutability": "view",
      "type": "function"
    }
  ],
  "bytecode": "0x60c0604052601960809081527f4861726468617420736574757020697320776f726b696e67210000000000000060a05260009061003c90826100ee565b5034801561004957600080fd5b506101ac565b634e487b7160e01b600052604160045260246000fd5b600181811c9082168061007957607f821691505b60208210810361009957634e487b7160e01b600052602260045260246000fd5b50919050565b601f8211156100e957806000526020600020601f840160051c810160208510156100c65750805b601f840160051c820191505b818110156100e657600081556001016100d2565b50505b505050565b81516001600160401b038111156101075761010761004f565b61011b816101158454610065565b8461009f565b6020601f82116001811461014f57600083156101375750848201515b600019600385901b1c1916600184901b1784556100e6565b600084815260208120601f198516915b8281101561017f578785015182556020948501946001909201910161015f565b508482101561019d5786840151600019600387901b60f8161c191681555b50505050600190811b01905550565b61019a806101bb6000396000f3fe608060405234801561001057600080fd5b506004361061002b5760003560e01c8063e21f37ce14610030575b600080fd5b61003861004e565b60405161004591906100dc565b60405180910390f35b6000805461005b9061012a565b80601f01602080910402602001604051908101604052809291908181526020018280546100879061012a565b80156100d45780601f106100a9576101008083540402835291602001916100d4565b820191906000526020600020905b8154815290600101906020018083116100b757829003601f168201915b505050505081565b602081526000825180602084015260005b8181101561010a57602081860181015160408684010152016100ed565b506000604082850101526040601f19601f83011684010191505092915050565b600181811c9082168061013e57607f821691505b60208210810361015e57634e487b7160e01b600052602260045260246000fd5b5091905056fea26469706673582212203652af4f9878c0a131fc6a8f6fab464d6ffdda838406141d6271f738c25f2e1564736f6c634300081c0033",
  "linkReferences": {},
  "deployedLinkReferences": {}
}